{
  "contractName": "ComptrollerV1Storage",
  "abi": [
    {
      "constant": true,
      "inputs": [
        {
          "internalType": "address",
          "name": "",
          "type": "address"
        },
        {
          "internalType": "uint256",
          "name": "",
          "type": "uint256"
        }
      ],
      "name": "accountAssets",
      "outputs": [
        {
          "internalType": "contract CToken",
          "name": "",
          "type": "address"
        }
      ],
      "payable": false,
      "stateMutability": "view",
      "type": "function"
    },
    {
      "constant": true,
      "inputs": [],
      "name": "admin",
      "outputs": [
        {
          "internalType": "address",
          "name": "",
          "type": "address"
        }
      ],
      "payable": false,
      "stateMutability": "view",
      "type": "function"
    },
    {
      "constant": true,
      "inputs": [],
      "name": "closeFactorMantissa",
      "outputs": [
        {
          "internalType": "uint256",
          "name": "",
          "type": "uint256"
        }
      ],
      "payable": false,
      "stateMutability": "view",
      "type": "function"
    },
    {
      "constant": true,
      "inputs": [],
      "name": "comptrollerImplementation",
      "outputs": [
        {
          "internalType": "address",
          "name": "",
          "type": "address"
        }
      ],
      "payable": false,
      "stateMutability": "view",
      "type": "function"
    },
    {
      "constant": true,
      "inputs": [],
      "name": "liquidationIncentiveMantissa",
      "outputs": [
        {
          "internalType": "uint256",
          "name": "",
          "type": "uint256"
        }
      ],
      "payable": false,
      "stateMutability": "view",
      "type": "function"
    },
    {
      "constant": true,
      "inputs": [],
      "name": "maxAssets",
      "outputs": [
        {
          "internalType": "uint256",
          "name": "",
          "type": "uint256"
        }
      ],
      "payable": false,
      "stateMutability": "view",
      "type": "function"
    },
    {
      "constant": true,
      "inputs": [],
      "name": "oracle",
      "outputs": [
        {
          "internalType": "contract PriceOracle",
          "name": "",
          "type": "address"
        }
      ],
      "payable": false,
      "stateMutability": "view",
      "type": "function"
    },
    {
      "constant": true,
      "inputs": [],
      "name": "pendingAdmin",
      "outputs": [
        {
          "internalType": "address",
          "name": "",
          "type": "address"
        }
      ],
      "payable": false,
      "stateMutability": "view",
      "type": "function"
    },
    {
      "constant": true,
      "inputs": [],
      "name": "pendingComptrollerImplementation",
      "outputs": [
        {
          "internalType": "address",
          "name": "",
          "type": "address"
        }
      ],
      "payable": false,
      "stateMutability": "view",
      "type": "function"
    }
  ],
  "bytecode": "0x608060405234801561001057600080fd5b5061045e806100206000396000f3fe608060405234801561001057600080fd5b50600436106100b0576000357c010000000000000000000000000000000000000000000000000000000090048063bb82aa5e11610083578063bb82aa5e14610185578063dce15449146101cf578063dcfbc0c71461025d578063e8755446146102a7578063f851a440146102c5576100b0565b806326782247146100b55780634ada90af146100ff5780637dc0d1d01461011d57806394b2294b14610167575b600080fd5b6100bd61030f565b604051808273ffffffffffffffffffffffffffffffffffffffff1673ffffffffffffffffffffffffffffffffffffffff16815260200191505060405180910390f35b610107610335565b6040518082815260200191505060405180910390f35b61012561033b565b604051808273ffffffffffffffffffffffffffffffffffffffff1673ffffffffffffffffffffffffffffffffffffffff16815260200191505060405180910390f35b61016f610361565b6040518082815260200191505060405180910390f35b61018d610367565b604051808273ffffffffffffffffffffffffffffffffffffffff1673ffffffffffffffffffffffffffffffffffffffff16815260200191505060405180910390f35b61021b600480360360408110156101e557600080fd5b81019080803573ffffffffffffffffffffffffffffffffffffffff1690602001909291908035906020019092919050505061038d565b604051808273ffffffffffffffffffffffffffffffffffffffff1673ffffffffffffffffffffffffffffffffffffffff16815260200191505060405180910390f35b6102656103d8565b604051808273ffffffffffffffffffffffffffffffffffffffff1673ffffffffffffffffffffffffffffffffffffffff16815260200191505060405180910390f35b6102af6103fe565b6040518082815260200191505060405180910390f35b6102cd610404565b604051808273ffffffffffffffffffffffffffffffffffffffff1673ffffffffffffffffffffffffffffffffffffffff16815260200191505060405180910390f35b600160009054906101000a900473ffffffffffffffffffffffffffffffffffffffff1681565b60065481565b600460009054906101000a900473ffffffffffffffffffffffffffffffffffffffff1681565b60075481565b600260009054906101000a900473ffffffffffffffffffffffffffffffffffffffff1681565b600860205281600052604060002081815481106103a657fe5b906000526020600020016000915091509054906101000a900473ffffffffffffffffffffffffffffffffffffffff1681565b600360009054906101000a900473ffffffffffffffffffffffffffffffffffffffff1681565b60055481565b6000809054906101000a900473ffffffffffffffffffffffffffffffffffffffff168156fea265627a7a72315820a957fc1529e3e913be7fd983504cd10b3e59a6dae3b264f6aea5ef0fd1f5e0aa64736f6c634300050c0032",
  "source": "pragma solidity ^0.5.12;\n\nimport \"./CToken.sol\";\nimport \"./PriceOracle.sol\";\n\ncontract UnitrollerAdminStorage {\n    /**\n    * @notice Administrator for this contract\n    */\n    address public admin;\n\n    /**\n    * @notice Pending administrator for this contract\n    */\n    address public pendingAdmin;\n\n    /**\n    * @notice Active brains of Unitroller\n    */\n    address public comptrollerImplementation;\n\n    /**\n    * @notice Pending brains of Unitroller\n    */\n    address public pendingComptrollerImplementation;\n}\n\ncontract ComptrollerV1Storage is UnitrollerAdminStorage {\n\n    /**\n     * @notice Oracle which gives the price of any given asset\n     */\n    PriceOracle public oracle;\n\n    /**\n     * @notice Multiplier used to calculate the maximum repayAmount when liquidating a borrow\n     */\n    uint public closeFactorMantissa;\n\n    /**\n     * @notice Multiplier representing the discount on collateral that a liquidator receives\n     */\n    uint public liquidationIncentiveMantissa;\n\n    /**\n     * @notice Max number of assets a single account can participate in (borrow or use as collateral)\n     */\n    uint public maxAssets;\n\n    /**\n     * @notice Per-account mapping of \"assets you are in\", capped by maxAssets\n     */\n    mapping(address => CToken[]) public accountAssets;\n\n}\n\ncontract ComptrollerV2Storage is ComptrollerV1Storage {\n    struct Market {\n        /**\n         * @notice Whether or not this market is listed\n         */\n        bool isListed;\n\n        /**\n         * @notice Multiplier representing the most one can borrow against their collateral in this market.\n         *  For instance, 0.9 to allow borrowing 90% of collateral value.\n         *  Must be between 0 and 1, and stored as a mantissa.\n         */\n        uint collateralFactorMantissa;\n\n        /**\n         * @notice Per-market mapping of \"accounts in this asset\"\n         */\n        mapping(address => bool) accountMembership;\n    }\n\n    /**\n     * @notice Official mapping of cTokens -> Market metadata\n     * @dev Used e.g. to determine if a market is supported\n     */\n    mapping(address => Market) public markets;\n\n\n    /**\n     * @notice The Pause Guardian can pause certain actions as a safety mechanism. Actions which allow users to remove their own assets cannot be paused.\n     */\n    address public pauseGuardian;\n    bool public mintGuardianPaused;\n    bool public borrowGuardianPaused;\n    bool public transferGuardianPaused;\n    bool public seizeGuardianPaused;\n}\n",
  "sourcePath": "/home/belvis/ethereum/private-Ethereum-TestNet/contracts/compound/ComptrollerStorage.sol",
  "compiler": {
    "name": "solc",
    "version": "0.5.12+commit.7709ece9.Emscripten.clang"
  },
  "schemaVersion": "3.0.1",
  "updatedAt": "2020-02-04T23:45:34.471Z",
  "devdoc": {
    "methods": {}
  },
  "userdoc": {
    "methods": {}
  }
}