{
  "contractName": "Maximillion",
  "abi": [
    {
      "inputs": [
        {
          "internalType": "contract CEther",
          "name": "cEther_",
          "type": "address"
        }
      ],
      "payable": false,
      "stateMutability": "nonpayable",
      "type": "constructor"
    },
    {
      "constant": true,
      "inputs": [],
      "name": "cEther",
      "outputs": [
        {
          "internalType": "contract CEther",
          "name": "",
          "type": "address"
        }
      ],
      "payable": false,
      "stateMutability": "view",
      "type": "function"
    },
    {
      "constant": false,
      "inputs": [
        {
          "internalType": "address",
          "name": "borrower",
          "type": "address"
        }
      ],
      "name": "repayBehalf",
      "outputs": [],
      "payable": true,
      "stateMutability": "payable",
      "type": "function"
    },
    {
      "constant": false,
      "inputs": [
        {
          "internalType": "address",
          "name": "borrower",
          "type": "address"
        },
        {
          "internalType": "contract CEther",
          "name": "cEther_",
          "type": "address"
        }
      ],
      "name": "repayBehalfExplicit",
      "outputs": [],
      "payable": true,
      "stateMutability": "payable",
      "type": "function"
    }
  ],
  "bytecode": "0x608060405234801561001057600080fd5b506040516105153803806105158339818101604052602081101561003357600080fd5b8101908080519060200190929190505050806000806101000a81548173ffffffffffffffffffffffffffffffffffffffff021916908373ffffffffffffffffffffffffffffffffffffffff16021790555050610481806100946000396000f3fe608060405260043610610051576000357c01000000000000000000000000000000000000000000000000000000009004806319b68c0014610056578063367b7f05146100ad5780639f35c3d514610111575b600080fd5b34801561006257600080fd5b5061006b610155565b604051808273ffffffffffffffffffffffffffffffffffffffff1673ffffffffffffffffffffffffffffffffffffffff16815260200191505060405180910390f35b61010f600480360360408110156100c357600080fd5b81019080803573ffffffffffffffffffffffffffffffffffffffff169060200190929190803573ffffffffffffffffffffffffffffffffffffffff16906020019092919050505061017a565b005b6101536004803603602081101561012757600080fd5b81019080803573ffffffffffffffffffffffffffffffffffffffff16906020019092919050505061041e565b005b6000809054906101000a900473ffffffffffffffffffffffffffffffffffffffff1681565b600034905060008273ffffffffffffffffffffffffffffffffffffffff166317bfdfbc856040518263ffffffff167c0100000000000000000000000000000000000000000000000000000000028152600401808273ffffffffffffffffffffffffffffffffffffffff1673ffffffffffffffffffffffffffffffffffffffff168152602001915050602060405180830381600087803b15801561021c57600080fd5b505af1158015610230573d6000803e3d6000fd5b505050506040513d602081101561024657600080fd5b8101908080519060200190929190505050905080821115610363578273ffffffffffffffffffffffffffffffffffffffff1663e597461982866040518363ffffffff167c0100000000000000000000000000000000000000000000000000000000028152600401808273ffffffffffffffffffffffffffffffffffffffff1673ffffffffffffffffffffffffffffffffffffffff1681526020019150506000604051808303818588803b1580156102fc57600080fd5b505af1158015610310573d6000803e3d6000fd5b50505050503373ffffffffffffffffffffffffffffffffffffffff166108fc8284039081150290604051600060405180830381858888f1935050505015801561035d573d6000803e3d6000fd5b50610418565b8273ffffffffffffffffffffffffffffffffffffffff1663e597461983866040518363ffffffff167c0100000000000000000000000000000000000000000000000000000000028152600401808273ffffffffffffffffffffffffffffffffffffffff1673ffffffffffffffffffffffffffffffffffffffff1681526020019150506000604051808303818588803b1580156103fe57600080fd5b505af1158015610412573d6000803e3d6000fd5b50505050505b50505050565b610449816000809054906101000a900473ffffffffffffffffffffffffffffffffffffffff1661017a565b5056fea265627a7a723158206f16670c1ada563c913f1b0dd3b11c72390cc2a065fe0e4143d232b84557399764736f6c634300050c0032",
  "source": "pragma solidity ^0.5.12;\n\nimport \"./CEther.sol\";\n\n/**\n * @title Compound's Maximillion Contract\n * @author Compound\n */\ncontract Maximillion {\n    /**\n     * @notice The default cEther market to repay in\n     */\n    CEther public cEther;\n\n    /**\n     * @notice Construct a Maximillion to repay max in a CEther market\n     */\n    constructor(CEther cEther_) public {\n        cEther = cEther_;\n    }\n\n    /**\n     * @notice msg.sender sends Ether to repay an account's borrow in the cEther market\n     * @dev The provided Ether is applied towards the borrow balance, any excess is refunded\n     * @param borrower The address of the borrower account to repay on behalf of\n     * @return The initial borrows before the repay\n     */\n    function repayBehalf(address borrower) public payable {\n        return repayBehalfExplicit(borrower, cEther);\n    }\n\n    /**\n     * @notice msg.sender sends Ether to repay an account's borrow in a cEther market\n     * @dev The provided Ether is applied towards the borrow balance, any excess is refunded\n     * @param borrower The address of the borrower account to repay on behalf of\n     * @param cEther_ The address of the cEther contract to repay in\n     * @return The initial borrows before the repay\n     */\n    function repayBehalfExplicit(address borrower, CEther cEther_) public payable {\n        uint received = msg.value;\n        uint borrows = cEther_.borrowBalanceCurrent(borrower);\n        if (received > borrows) {\n            cEther_.repayBorrowBehalf.value(borrows)(borrower);\n            msg.sender.transfer(received - borrows);\n        } else {\n            cEther_.repayBorrowBehalf.value(received)(borrower);\n        }\n    }\n}\n",
  "sourcePath": "/home/belvis/ethereum/private-Ethereum-TestNet/contracts/compound/Maximillion.sol",
  "compiler": {
    "name": "solc",
    "version": "0.5.12+commit.7709ece9.Emscripten.clang"
  },
  "schemaVersion": "3.0.1",
  "updatedAt": "2020-02-04T23:45:34.478Z",
  "devdoc": {
    "author": "Compound",
    "methods": {
      "repayBehalf(address)": {
        "details": "The provided Ether is applied towards the borrow balance, any excess is refunded",
        "params": {
          "borrower": "The address of the borrower account to repay on behalf of"
        },
        "return": "The initial borrows before the repay"
      },
      "repayBehalfExplicit(address,address)": {
        "details": "The provided Ether is applied towards the borrow balance, any excess is refunded",
        "params": {
          "borrower": "The address of the borrower account to repay on behalf of",
          "cEther_": "The address of the cEther contract to repay in"
        },
        "return": "The initial borrows before the repay"
      }
    },
    "title": "Compound's Maximillion Contract"
  },
  "userdoc": {
    "methods": {
      "constructor": "Construct a Maximillion to repay max in a CEther market",
      "repayBehalf(address)": {
        "notice": "msg.sender sends Ether to repay an account's borrow in the cEther market"
      },
      "repayBehalfExplicit(address,address)": {
        "notice": "msg.sender sends Ether to repay an account's borrow in a cEther market"
      }
    }
  }
}