{
  "contractName": "PriceOracleProxy",
  "abi": [
    {
      "inputs": [
        {
          "internalType": "address",
          "name": "comptroller_",
          "type": "address"
        },
        {
          "internalType": "address",
          "name": "v1PriceOracle_",
          "type": "address"
        },
        {
          "internalType": "address",
          "name": "cEthAddress_",
          "type": "address"
        },
        {
          "internalType": "address",
          "name": "cUsdcAddress_",
          "type": "address"
        },
        {
          "internalType": "address",
          "name": "cSaiAddress_",
          "type": "address"
        },
        {
          "internalType": "address",
          "name": "cDaiAddress_",
          "type": "address"
        }
      ],
      "payable": false,
      "stateMutability": "nonpayable",
      "type": "constructor"
    },
    {
      "constant": true,
      "inputs": [],
      "name": "cDaiAddress",
      "outputs": [
        {
          "internalType": "address",
          "name": "",
          "type": "address"
        }
      ],
      "payable": false,
      "stateMutability": "view",
      "type": "function"
    },
    {
      "constant": true,
      "inputs": [],
      "name": "cEthAddress",
      "outputs": [
        {
          "internalType": "address",
          "name": "",
          "type": "address"
        }
      ],
      "payable": false,
      "stateMutability": "view",
      "type": "function"
    },
    {
      "constant": true,
      "inputs": [],
      "name": "cSaiAddress",
      "outputs": [
        {
          "internalType": "address",
          "name": "",
          "type": "address"
        }
      ],
      "payable": false,
      "stateMutability": "view",
      "type": "function"
    },
    {
      "constant": true,
      "inputs": [],
      "name": "cUsdcAddress",
      "outputs": [
        {
          "internalType": "address",
          "name": "",
          "type": "address"
        }
      ],
      "payable": false,
      "stateMutability": "view",
      "type": "function"
    },
    {
      "constant": true,
      "inputs": [],
      "name": "comptroller",
      "outputs": [
        {
          "internalType": "contract Comptroller",
          "name": "",
          "type": "address"
        }
      ],
      "payable": false,
      "stateMutability": "view",
      "type": "function"
    },
    {
      "constant": true,
      "inputs": [],
      "name": "isPriceOracle",
      "outputs": [
        {
          "internalType": "bool",
          "name": "",
          "type": "bool"
        }
      ],
      "payable": false,
      "stateMutability": "view",
      "type": "function"
    },
    {
      "constant": true,
      "inputs": [],
      "name": "makerUsdOracleKey",
      "outputs": [
        {
          "internalType": "address",
          "name": "",
          "type": "address"
        }
      ],
      "payable": false,
      "stateMutability": "view",
      "type": "function"
    },
    {
      "constant": true,
      "inputs": [],
      "name": "v1PriceOracle",
      "outputs": [
        {
          "internalType": "contract V1PriceOracleInterface",
          "name": "",
          "type": "address"
        }
      ],
      "payable": false,
      "stateMutability": "view",
      "type": "function"
    },
    {
      "constant": true,
      "inputs": [
        {
          "internalType": "contract CToken",
          "name": "cToken",
          "type": "address"
        }
      ],
      "name": "getUnderlyingPrice",
      "outputs": [
        {
          "internalType": "uint256",
          "name": "",
          "type": "uint256"
        }
      ],
      "payable": false,
      "stateMutability": "view",
      "type": "function"
    }
  ],
  "bytecode": "0x608060405234801561001057600080fd5b506040516112e43803806112e4833981810160405260c081101561003357600080fd5b8101908080519060200190929190805190602001909291908051906020019092919080519060200190929190805190602001909291908051906020019092919050505085600160006101000a81548173ffffffffffffffffffffffffffffffffffffffff021916908373ffffffffffffffffffffffffffffffffffffffff160217905550846000806101000a81548173ffffffffffffffffffffffffffffffffffffffff021916908373ffffffffffffffffffffffffffffffffffffffff16021790555083600260006101000a81548173ffffffffffffffffffffffffffffffffffffffff021916908373ffffffffffffffffffffffffffffffffffffffff16021790555082600360006101000a81548173ffffffffffffffffffffffffffffffffffffffff021916908373ffffffffffffffffffffffffffffffffffffffff16021790555081600460006101000a81548173ffffffffffffffffffffffffffffffffffffffff021916908373ffffffffffffffffffffffffffffffffffffffff16021790555080600560006101000a81548173ffffffffffffffffffffffffffffffffffffffff021916908373ffffffffffffffffffffffffffffffffffffffff160217905550600073ffffffffffffffffffffffffffffffffffffffff168273ffffffffffffffffffffffffffffffffffffffff161461030d578173ffffffffffffffffffffffffffffffffffffffff16636f307dc36040518163ffffffff167c010000000000000000000000000000000000000000000000000000000002815260040160206040518083038186803b15801561029157600080fd5b505afa1580156102a5573d6000803e3d6000fd5b505050506040513d60208110156102bb57600080fd5b8101908080519060200190929190505050600660006101000a81548173ffffffffffffffffffffffffffffffffffffffff021916908373ffffffffffffffffffffffffffffffffffffffff1602179055505b505050505050610fc2806103226000396000f3fe608060405234801561001057600080fd5b50600436106100b0576000357c010000000000000000000000000000000000000000000000000000000090048063bc8a4ef411610083578063bc8a4ef4146101b5578063f2c65bf9146101ff578063fc57d4df14610249578063fe10c98d146102a1578063ff11439b146102eb576100b0565b806321b49128146100b55780632ed58e15146100ff5780635fe3b5671461014957806366331bba14610193575b600080fd5b6100bd610335565b604051808273ffffffffffffffffffffffffffffffffffffffff1673ffffffffffffffffffffffffffffffffffffffff16815260200191505060405180910390f35b61010761035b565b604051808273ffffffffffffffffffffffffffffffffffffffff1673ffffffffffffffffffffffffffffffffffffffff16815260200191505060405180910390f35b610151610381565b604051808273ffffffffffffffffffffffffffffffffffffffff1673ffffffffffffffffffffffffffffffffffffffff16815260200191505060405180910390f35b61019b6103a7565b604051808215151515815260200191505060405180910390f35b6101bd6103ac565b604051808273ffffffffffffffffffffffffffffffffffffffff1673ffffffffffffffffffffffffffffffffffffffff16815260200191505060405180910390f35b6102076103d2565b604051808273ffffffffffffffffffffffffffffffffffffffff1673ffffffffffffffffffffffffffffffffffffffff16815260200191505060405180910390f35b61028b6004803603602081101561025f57600080fd5b81019080803573ffffffffffffffffffffffffffffffffffffffff1690602001909291905050506103f8565b6040518082815260200191505060405180910390f35b6102a9610d8b565b604051808273ffffffffffffffffffffffffffffffffffffffff1673ffffffffffffffffffffffffffffffffffffffff16815260200191505060405180910390f35b6102f3610db0565b604051808273ffffffffffffffffffffffffffffffffffffffff1673ffffffffffffffffffffffffffffffffffffffff16815260200191505060405180910390f35b600460009054906101000a900473ffffffffffffffffffffffffffffffffffffffff1681565b600260009054906101000a900473ffffffffffffffffffffffffffffffffffffffff1681565b600160009054906101000a900473ffffffffffffffffffffffffffffffffffffffff1681565b600181565b600660009054906101000a900473ffffffffffffffffffffffffffffffffffffffff1681565b600560009054906101000a900473ffffffffffffffffffffffffffffffffffffffff1681565b6000808290506000600160009054906101000a900473ffffffffffffffffffffffffffffffffffffffff1673ffffffffffffffffffffffffffffffffffffffff16638e8f294b836040518263ffffffff167c0100000000000000000000000000000000000000000000000000000000028152600401808273ffffffffffffffffffffffffffffffffffffffff1673ffffffffffffffffffffffffffffffffffffffff168152602001915050604080518083038186803b1580156104ba57600080fd5b505afa1580156104ce573d6000803e3d6000fd5b505050506040513d60408110156104e457600080fd5b8101908080519060200190929190805190602001909291905050505090508061051257600092505050610d86565b600260009054906101000a900473ffffffffffffffffffffffffffffffffffffffff1673ffffffffffffffffffffffffffffffffffffffff168273ffffffffffffffffffffffffffffffffffffffff16141561057a57670de0b6b3a764000092505050610d86565b600360009054906101000a900473ffffffffffffffffffffffffffffffffffffffff1673ffffffffffffffffffffffffffffffffffffffff168273ffffffffffffffffffffffffffffffffffffffff161415610707576106fe64e8d4a510006000809054906101000a900473ffffffffffffffffffffffffffffffffffffffff1673ffffffffffffffffffffffffffffffffffffffff16635e9a523c600660009054906101000a900473ffffffffffffffffffffffffffffffffffffffff166040518263ffffffff167c0100000000000000000000000000000000000000000000000000000000028152600401808273ffffffffffffffffffffffffffffffffffffffff1673ffffffffffffffffffffffffffffffffffffffff16815260200191505060206040518083038186803b1580156106b557600080fd5b505afa1580156106c9573d6000803e3d6000fd5b505050506040513d60208110156106df57600080fd5b8101908080519060200190929190505050610dd690919063ffffffff16565b92505050610d86565b600460009054906101000a900473ffffffffffffffffffffffffffffffffffffffff1673ffffffffffffffffffffffffffffffffffffffff168273ffffffffffffffffffffffffffffffffffffffff1614806107b05750600560009054906101000a900473ffffffffffffffffffffffffffffffffffffffff1673ffffffffffffffffffffffffffffffffffffffff168273ffffffffffffffffffffffffffffffffffffffff16145b15610bea5760008060009054906101000a900473ffffffffffffffffffffffffffffffffffffffff1673ffffffffffffffffffffffffffffffffffffffff16635e9a523c600660009054906101000a900473ffffffffffffffffffffffffffffffffffffffff166040518263ffffffff167c0100000000000000000000000000000000000000000000000000000000028152600401808273ffffffffffffffffffffffffffffffffffffffff1673ffffffffffffffffffffffffffffffffffffffff16815260200191505060206040518083038186803b15801561089357600080fd5b505afa1580156108a7573d6000803e3d6000fd5b505050506040513d60208110156108bd57600080fd5b8101908080519060200190929190505050905060008060009054906101000a900473ffffffffffffffffffffffffffffffffffffffff1673ffffffffffffffffffffffffffffffffffffffff16635e9a523c60016040518263ffffffff167c0100000000000000000000000000000000000000000000000000000000028152600401808273ffffffffffffffffffffffffffffffffffffffff1673ffffffffffffffffffffffffffffffffffffffff16815260200191505060206040518083038186803b15801561098d57600080fd5b505afa1580156109a1573d6000803e3d6000fd5b505050506040513d60208110156109b757600080fd5b810190808051906020019092919050505090506000610ad964e8d4a510006000809054906101000a900473ffffffffffffffffffffffffffffffffffffffff1673ffffffffffffffffffffffffffffffffffffffff16635e9a523c60026040518263ffffffff167c0100000000000000000000000000000000000000000000000000000000028152600401808273ffffffffffffffffffffffffffffffffffffffff1673ffffffffffffffffffffffffffffffffffffffff16815260200191505060206040518083038186803b158015610a9057600080fd5b505afa158015610aa4573d6000803e3d6000fd5b505050506040513d6020811015610aba57600080fd5b8101908080519060200190929190505050610dd690919063ffffffff16565b90506000610b0a83610afc670de0b6b3a764000085610dd690919063ffffffff16565b610e5c90919063ffffffff16565b9050670d2f13f7789f0000811015610b5e57610b51670de0b6b3a7640000610b43670d2f13f7789f000087610dd690919063ffffffff16565b610e5c90919063ffffffff16565b9650505050505050610d86565b670e92596fd6290000811115610bb057610ba3670de0b6b3a7640000610b95670e92596fd629000087610dd690919063ffffffff16565b610e5c90919063ffffffff16565b9650505050505050610d86565b610bdd670de0b6b3a7640000610bcf8387610dd690919063ffffffff16565b610e5c90919063ffffffff16565b9650505050505050610d86565b60008273ffffffffffffffffffffffffffffffffffffffff16636f307dc36040518163ffffffff167c010000000000000000000000000000000000000000000000000000000002815260040160206040518083038186803b158015610c4e57600080fd5b505afa158015610c62573d6000803e3d6000fd5b505050506040513d6020811015610c7857600080fd5b810190808051906020019092919050505090506000809054906101000a900473ffffffffffffffffffffffffffffffffffffffff1673ffffffffffffffffffffffffffffffffffffffff16635e9a523c826040518263ffffffff167c0100000000000000000000000000000000000000000000000000000000028152600401808273ffffffffffffffffffffffffffffffffffffffff1673ffffffffffffffffffffffffffffffffffffffff16815260200191505060206040518083038186803b158015610d4557600080fd5b505afa158015610d59573d6000803e3d6000fd5b505050506040513d6020811015610d6f57600080fd5b810190808051906020019092919050505093505050505b919050565b6000809054906101000a900473ffffffffffffffffffffffffffffffffffffffff1681565b600360009054906101000a900473ffffffffffffffffffffffffffffffffffffffff1681565b600080831415610de95760009050610e56565b6000828402905082848281610dfa57fe5b0414610e51576040517f08c379a0000000000000000000000000000000000000000000000000000000008152600401808060200182810382526021815260200180610f6d6021913960400191505060405180910390fd5b809150505b92915050565b6000610e9e83836040518060400160405280601a81526020017f536166654d6174683a206469766973696f6e206279207a65726f000000000000815250610ea6565b905092915050565b60008083118290610f52576040517f08c379a00000000000000000000000000000000000000000000000000000000081526004018080602001828103825283818151815260200191508051906020019080838360005b83811015610f17578082015181840152602081019050610efc565b50505050905090810190601f168015610f445780820380516001836020036101000a031916815260200191505b509250505060405180910390fd5b506000838581610f5e57fe5b04905080915050939250505056fe536166654d6174683a206d756c7469706c69636174696f6e206f766572666c6f77a265627a7a72315820e94178a4d80d4e2bfc98b0e543de1b715cb586035f0ec7937b84209ac38f503f64736f6c634300050c0032",
  "source": "pragma solidity ^0.5.12;\n\nimport \"./CErc20.sol\";\nimport \"./CToken.sol\";\nimport \"./PriceOracle.sol\";\nimport \"./Comptroller.sol\";\nimport \"./SafeMath.sol\";\n\ninterface V1PriceOracleInterface {\n    function assetPrices(address asset) external view returns (uint);\n}\n\ncontract PriceOracleProxy is PriceOracle {\n    using SafeMath for uint256;\n\n    /**\n     * @notice The v1 price oracle, which will continue to serve prices for v1 assets\n     */\n    V1PriceOracleInterface public v1PriceOracle;\n\n    /**\n     * @notice The comptroller which is used to white-list assets the proxy will price\n     * @dev Assets which are not white-listed will not be priced, to defend against abuse\n     */\n    Comptroller public comptroller;\n\n    /**\n     * @notice address of the cEther contract, which has a constant price\n     */\n    address public cEthAddress;\n\n    /**\n     * @notice address of the cUSDC contract, which we hand pick a key for\n     */\n    address public cUsdcAddress;\n\n    /**\n     * @notice address of the cSAI contract, which we hand pick a key for\n     */\n    address public cSaiAddress;\n\n    /**\n     * @notice address of the cDAI contract, which we peg to the SAI price\n     */\n    address public cDaiAddress;\n\n    /**\n     * @notice address of the USDC contract, which we hand pick a key for\n     */\n    address constant usdcOracleKey = address(1);\n\n    /**\n     * @notice address of the SAI contract, which we hand pick a key for\n     */\n    address constant saiOracleKey = address(2);\n\n    /**\n     * @notice address of the asset which contains the USD/ETH price from Maker\n     */\n    address public makerUsdOracleKey;\n\n    /**\n     * @notice Indicator that this is a PriceOracle contract (for inspection)\n     */\n    bool public constant isPriceOracle = true;\n\n    /**\n     * @param comptroller_ The address of the comptroller, which will be consulted for market listing status\n     * @param v1PriceOracle_ The address of the v1 price oracle, which will continue to operate and hold prices for collateral assets\n     * @param cEthAddress_ The address of cETH, which will return a constant 1e18, since all prices relative to ether\n     * @param cUsdcAddress_ The address of cUSDC, which will be read from a special oracle key\n     * @param cSaiAddress_ The address of cSAI, which will be read from a special oracle key\n     * @param cDaiAddress_ The address of cDAI, which will be pegged to the SAI price\n     */\n    constructor(address comptroller_,\n                address v1PriceOracle_,\n                address cEthAddress_,\n                address cUsdcAddress_,\n                address cSaiAddress_,\n                address cDaiAddress_) public {\n        comptroller = Comptroller(comptroller_);\n        v1PriceOracle = V1PriceOracleInterface(v1PriceOracle_);\n\n        cEthAddress = cEthAddress_;\n        cUsdcAddress = cUsdcAddress_;\n        cSaiAddress = cSaiAddress_;\n        cDaiAddress = cDaiAddress_;\n\n        if (cSaiAddress_ != address(0)) {\n            makerUsdOracleKey = CErc20(cSaiAddress_).underlying();\n        }\n    }\n\n    /**\n     * @notice Get the underlying price of a listed cToken asset\n     * @param cToken The cToken to get the underlying price of\n     * @return The underlying asset price mantissa (scaled by 1e18).\n     *  Zero means the price is unavailable.\n     */\n    function getUnderlyingPrice(CToken cToken) public view returns (uint) {\n        address cTokenAddress = address(cToken);\n        (bool isListed, ) = comptroller.markets(cTokenAddress);\n\n        if (!isListed) {\n            // not white-listed, worthless\n            return 0;\n        }\n\n        if (cTokenAddress == cEthAddress) {\n            // ether always worth 1\n            return 1e18;\n        }\n\n        if (cTokenAddress == cUsdcAddress) {\n            // we assume USDC/USD = 1, and let DAI/ETH float based on the DAI/USDC ratio\n            //  use the maker usd price (for a token w/ 6 decimals)\n            return v1PriceOracle.assetPrices(makerUsdOracleKey).mul(1e12); // 1e(18 - 6)\n        }\n\n        if (cTokenAddress == cSaiAddress || cTokenAddress == cDaiAddress) {\n            // check and bound the DAI/USDC posted price ratio\n            //  and use that to scale the maker price (for a token w/ 18 decimals)\n            uint makerUsdPrice = v1PriceOracle.assetPrices(makerUsdOracleKey);\n            uint postedUsdcPrice = v1PriceOracle.assetPrices(usdcOracleKey);\n            uint postedScaledDaiPrice = v1PriceOracle.assetPrices(saiOracleKey).mul(1e12);\n            uint daiUsdcRatio = postedScaledDaiPrice.mul(1e18).div(postedUsdcPrice);\n\n            if (daiUsdcRatio < 0.95e18) {\n                return makerUsdPrice.mul(0.95e18).div(1e18);\n            }\n\n            if (daiUsdcRatio > 1.05e18) {\n                return makerUsdPrice.mul(1.05e18).div(1e18);\n            }\n\n            return makerUsdPrice.mul(daiUsdcRatio).div(1e18);\n        }\n\n        // otherwise just read from v1 oracle\n        address underlying = CErc20(cTokenAddress).underlying();\n        return v1PriceOracle.assetPrices(underlying);\n    }\n}\n",
  "sourcePath": "/home/belvis/ethereum/private-Ethereum-TestNet/contracts/compound/PriceOracleProxy.sol",
  "compiler": {
    "name": "solc",
    "version": "0.5.12+commit.7709ece9.Emscripten.clang"
  },
  "schemaVersion": "3.0.1",
  "updatedAt": "2020-02-04T23:45:34.480Z",
  "devdoc": {
    "methods": {
      "constructor": {
        "params": {
          "cDaiAddress_": "The address of cDAI, which will be pegged to the SAI price",
          "cEthAddress_": "The address of cETH, which will return a constant 1e18, since all prices relative to ether",
          "cSaiAddress_": "The address of cSAI, which will be read from a special oracle key",
          "cUsdcAddress_": "The address of cUSDC, which will be read from a special oracle key",
          "comptroller_": "The address of the comptroller, which will be consulted for market listing status",
          "v1PriceOracle_": "The address of the v1 price oracle, which will continue to operate and hold prices for collateral assets"
        }
      },
      "getUnderlyingPrice(address)": {
        "params": {
          "cToken": "The cToken to get the underlying price of"
        },
        "return": "The underlying asset price mantissa (scaled by 1e18). Zero means the price is unavailable."
      }
    }
  },
  "userdoc": {
    "methods": {
      "getUnderlyingPrice(address)": {
        "notice": "Get the underlying price of a listed cToken asset"
      }
    }
  }
}