{
  "contractName": "WhitePaperInterestRateModel",
  "abi": [
    {
      "inputs": [
        {
          "internalType": "uint256",
          "name": "baseRatePerYear",
          "type": "uint256"
        },
        {
          "internalType": "uint256",
          "name": "multiplierPerYear",
          "type": "uint256"
        }
      ],
      "payable": false,
      "stateMutability": "nonpayable",
      "type": "constructor"
    },
    {
      "anonymous": false,
      "inputs": [
        {
          "indexed": false,
          "internalType": "uint256",
          "name": "baseRatePerBlock",
          "type": "uint256"
        },
        {
          "indexed": false,
          "internalType": "uint256",
          "name": "multiplierPerBlock",
          "type": "uint256"
        }
      ],
      "name": "NewInterestParams",
      "type": "event"
    },
    {
      "constant": true,
      "inputs": [],
      "name": "baseRatePerBlock",
      "outputs": [
        {
          "internalType": "uint256",
          "name": "",
          "type": "uint256"
        }
      ],
      "payable": false,
      "stateMutability": "view",
      "type": "function"
    },
    {
      "constant": true,
      "inputs": [],
      "name": "blocksPerYear",
      "outputs": [
        {
          "internalType": "uint256",
          "name": "",
          "type": "uint256"
        }
      ],
      "payable": false,
      "stateMutability": "view",
      "type": "function"
    },
    {
      "constant": true,
      "inputs": [],
      "name": "isInterestRateModel",
      "outputs": [
        {
          "internalType": "bool",
          "name": "",
          "type": "bool"
        }
      ],
      "payable": false,
      "stateMutability": "view",
      "type": "function"
    },
    {
      "constant": true,
      "inputs": [],
      "name": "multiplierPerBlock",
      "outputs": [
        {
          "internalType": "uint256",
          "name": "",
          "type": "uint256"
        }
      ],
      "payable": false,
      "stateMutability": "view",
      "type": "function"
    },
    {
      "constant": true,
      "inputs": [
        {
          "internalType": "uint256",
          "name": "cash",
          "type": "uint256"
        },
        {
          "internalType": "uint256",
          "name": "borrows",
          "type": "uint256"
        },
        {
          "internalType": "uint256",
          "name": "reserves",
          "type": "uint256"
        }
      ],
      "name": "utilizationRate",
      "outputs": [
        {
          "internalType": "uint256",
          "name": "",
          "type": "uint256"
        }
      ],
      "payable": false,
      "stateMutability": "pure",
      "type": "function"
    },
    {
      "constant": true,
      "inputs": [
        {
          "internalType": "uint256",
          "name": "cash",
          "type": "uint256"
        },
        {
          "internalType": "uint256",
          "name": "borrows",
          "type": "uint256"
        },
        {
          "internalType": "uint256",
          "name": "reserves",
          "type": "uint256"
        }
      ],
      "name": "getBorrowRate",
      "outputs": [
        {
          "internalType": "uint256",
          "name": "",
          "type": "uint256"
        }
      ],
      "payable": false,
      "stateMutability": "view",
      "type": "function"
    },
    {
      "constant": true,
      "inputs": [
        {
          "internalType": "uint256",
          "name": "cash",
          "type": "uint256"
        },
        {
          "internalType": "uint256",
          "name": "borrows",
          "type": "uint256"
        },
        {
          "internalType": "uint256",
          "name": "reserves",
          "type": "uint256"
        },
        {
          "internalType": "uint256",
          "name": "reserveFactorMantissa",
          "type": "uint256"
        }
      ],
      "name": "getSupplyRate",
      "outputs": [
        {
          "internalType": "uint256",
          "name": "",
          "type": "uint256"
        }
      ],
      "payable": false,
      "stateMutability": "view",
      "type": "function"
    }
  ],
  "bytecode": "0x608060405234801561001057600080fd5b506040516109443803806109448339818101604052604081101561003357600080fd5b81019080805190602001909291908051906020019092919050505061007162201480836100ea64010000000002610434179091906401000000009004565b60018190555061009a62201480826100ea64010000000002610434179091906401000000009004565b6000819055507ff35fa19c15e9ba782633a5df62a98b20217151addc68e3ff2cd623a48d37ec27600154600054604051808381526020018281526020019250505060405180910390a15050610209565b600061013b83836040518060400160405280601a81526020017f536166654d6174683a206469766973696f6e206279207a65726f000000000000815250610143640100000000026401000000009004565b905092915050565b600080831182906101ef576040517f08c379a00000000000000000000000000000000000000000000000000000000081526004018080602001828103825283818151815260200191508051906020019080838360005b838110156101b4578082015181840152602081019050610199565b50505050905090810190601f1680156101e15780820380516001836020036101000a031916815260200191505b509250505060405180910390fd5b5060008385816101fb57fe5b049050809150509392505050565b61072c806102186000396000f3fe608060405234801561001057600080fd5b506004361061009a576000357c0100000000000000000000000000000000000000000000000000000000900480638726bb89116100785780638726bb891461016d578063a385fb961461018b578063b8168816146101a9578063f14039de146102095761009a565b806315f240531461009f5780632191f92a146100f55780636e71e2d814610117575b600080fd5b6100df600480360360608110156100b557600080fd5b81019080803590602001909291908035906020019092919080359060200190929190505050610227565b6040518082815260200191505060405180910390f35b6100fd610284565b604051808215151515815260200191505060405180910390f35b6101576004803603606081101561012d57600080fd5b81019080803590602001909291908035906020019092919080359060200190929190505050610289565b6040518082815260200191505060405180910390f35b6101756102f7565b6040518082815260200191505060405180910390f35b6101936102fd565b6040518082815260200191505060405180910390f35b6101f3600480360360808110156101bf57600080fd5b8101908080359060200190929190803590602001909291908035906020019092919080359060200190929190505050610304565b6040518082815260200191505060405180910390f35b6102116103a8565b6040518082815260200191505060405180910390f35b600080610235858585610289565b905061027a60015461026c670de0b6b3a764000061025e600054866103ae90919063ffffffff16565b61043490919063ffffffff16565b61047e90919063ffffffff16565b9150509392505050565b600181565b60008083141561029c57600090506102f0565b6102ed6102c4836102b6868861047e90919063ffffffff16565b61050690919063ffffffff16565b6102df670de0b6b3a7640000866103ae90919063ffffffff16565b61043490919063ffffffff16565b90505b9392505050565b60005481565b6220148081565b60008061032283670de0b6b3a764000061050690919063ffffffff16565b90506000610331878787610227565b90506000610362670de0b6b3a764000061035485856103ae90919063ffffffff16565b61043490919063ffffffff16565b905061039b670de0b6b3a764000061038d8361037f8c8c8c610289565b6103ae90919063ffffffff16565b61043490919063ffffffff16565b9350505050949350505050565b60015481565b6000808314156103c1576000905061042e565b60008284029050828482816103d257fe5b0414610429576040517f08c379a00000000000000000000000000000000000000000000000000000000081526004018080602001828103825260218152602001806106d76021913960400191505060405180910390fd5b809150505b92915050565b600061047683836040518060400160405280601a81526020017f536166654d6174683a206469766973696f6e206279207a65726f000000000000815250610550565b905092915050565b6000808284019050838110156104fc576040517f08c379a000000000000000000000000000000000000000000000000000000000815260040180806020018281038252601b8152602001807f536166654d6174683a206164646974696f6e206f766572666c6f77000000000081525060200191505060405180910390fd5b8091505092915050565b600061054883836040518060400160405280601e81526020017f536166654d6174683a207375627472616374696f6e206f766572666c6f770000815250610616565b905092915050565b600080831182906105fc576040517f08c379a00000000000000000000000000000000000000000000000000000000081526004018080602001828103825283818151815260200191508051906020019080838360005b838110156105c15780820151818401526020810190506105a6565b50505050905090810190601f1680156105ee5780820380516001836020036101000a031916815260200191505b509250505060405180910390fd5b50600083858161060857fe5b049050809150509392505050565b60008383111582906106c3576040517f08c379a00000000000000000000000000000000000000000000000000000000081526004018080602001828103825283818151815260200191508051906020019080838360005b8381101561068857808201518184015260208101905061066d565b50505050905090810190601f1680156106b55780820380516001836020036101000a031916815260200191505b509250505060405180910390fd5b506000838503905080915050939250505056fe536166654d6174683a206d756c7469706c69636174696f6e206f766572666c6f77a265627a7a72315820e8ea0f492e401df2c3237eefd979c14633d342d2ffc52f4410b0de8b7a48a72964736f6c634300050c0032",
  "source": "pragma solidity ^0.5.12;\n\nimport \"./InterestRateModel.sol\";\nimport \"./SafeMath.sol\";\n\n/**\n  * @title Compound's WhitePaperInterestRateModel Contract\n  * @author Compound\n  * @notice The parameterized model described in section 2.4 of the original Compound Protocol whitepaper\n  */\ncontract WhitePaperInterestRateModel is InterestRateModel {\n    using SafeMath for uint;\n\n    event NewInterestParams(uint baseRatePerBlock, uint multiplierPerBlock);\n\n    /**\n     * @notice Indicator that this is an InterestRateModel contract (for inspection)\n     */\n    bool public constant isInterestRateModel = true;\n\n    /**\n     * @notice The approximate number of blocks per year that is assumed by the interest rate model\n     */\n    uint public constant blocksPerYear = 2102400;\n\n    /**\n     * @notice The multiplier of utilization rate that gives the slope of the interest rate\n     */\n    uint public multiplierPerBlock;\n\n    /**\n     * @notice The base interest rate which is the y-intercept when utilization rate is 0\n     */\n    uint public baseRatePerBlock;\n\n    /**\n     * @notice Construct an interest rate model\n     * @param baseRatePerYear The approximate target base APR, as a mantissa (scaled by 1e18)\n     * @param multiplierPerYear The rate of increase in interest rate wrt utilization (scaled by 1e18)\n     */\n    constructor(uint baseRatePerYear, uint multiplierPerYear) public {\n        baseRatePerBlock = baseRatePerYear.div(blocksPerYear);\n        multiplierPerBlock = multiplierPerYear.div(blocksPerYear);\n\n        emit NewInterestParams(baseRatePerBlock, multiplierPerBlock);\n    }\n\n    /**\n     * @notice Calculates the utilization rate of the market: `borrows / (cash + borrows - reserves)`\n     * @param cash The amount of cash in the market\n     * @param borrows The amount of borrows in the market\n     * @param reserves The amount of reserves in the market (currently unused)\n     * @return The utilization rate as a mantissa between [0, 1e18]\n     */\n    function utilizationRate(uint cash, uint borrows, uint reserves) public pure returns (uint) {\n        // Utilization rate is 0 when there are no borrows\n        if (borrows == 0) {\n            return 0;\n        }\n\n        return borrows.mul(1e18).div(cash.add(borrows).sub(reserves));\n    }\n\n    /**\n     * @notice Calculates the current borrow rate per block, with the error code expected by the market\n     * @param cash The amount of cash in the market\n     * @param borrows The amount of borrows in the market\n     * @param reserves The amount of reserves in the market\n     * @return The borrow rate percentage per block as a mantissa (scaled by 1e18)\n     */\n    function getBorrowRate(uint cash, uint borrows, uint reserves) public view returns (uint) {\n        uint ur = utilizationRate(cash, borrows, reserves);\n        return ur.mul(multiplierPerBlock).div(1e18).add(baseRatePerBlock);\n    }\n\n    /**\n     * @notice Calculates the current supply rate per block\n     * @param cash The amount of cash in the market\n     * @param borrows The amount of borrows in the market\n     * @param reserves The amount of reserves in the market\n     * @param reserveFactorMantissa The current reserve factor for the market\n     * @return The supply rate percentage per block as a mantissa (scaled by 1e18)\n     */\n    function getSupplyRate(uint cash, uint borrows, uint reserves, uint reserveFactorMantissa) public view returns (uint) {\n        uint oneMinusReserveFactor = uint(1e18).sub(reserveFactorMantissa);\n        uint borrowRate = getBorrowRate(cash, borrows, reserves);\n        uint rateToPool = borrowRate.mul(oneMinusReserveFactor).div(1e18);\n        return utilizationRate(cash, borrows, reserves).mul(rateToPool).div(1e18);\n    }\n}\n",
  "sourcePath": "/home/belvis/ethereum/private-Ethereum-TestNet/contracts/compound/WhitePaperInterestRateModel.sol",
  "compiler": {
    "name": "solc",
    "version": "0.5.12+commit.7709ece9.Emscripten.clang"
  },
  "schemaVersion": "3.0.1",
  "updatedAt": "2020-02-04T23:45:34.489Z",
  "devdoc": {
    "author": "Compound",
    "methods": {
      "constructor": {
        "params": {
          "baseRatePerYear": "The approximate target base APR, as a mantissa (scaled by 1e18)",
          "multiplierPerYear": "The rate of increase in interest rate wrt utilization (scaled by 1e18)"
        }
      },
      "getBorrowRate(uint256,uint256,uint256)": {
        "params": {
          "borrows": "The amount of borrows in the market",
          "cash": "The amount of cash in the market",
          "reserves": "The amount of reserves in the market"
        },
        "return": "The borrow rate percentage per block as a mantissa (scaled by 1e18)"
      },
      "getSupplyRate(uint256,uint256,uint256,uint256)": {
        "params": {
          "borrows": "The amount of borrows in the market",
          "cash": "The amount of cash in the market",
          "reserveFactorMantissa": "The current reserve factor for the market",
          "reserves": "The amount of reserves in the market"
        },
        "return": "The supply rate percentage per block as a mantissa (scaled by 1e18)"
      },
      "utilizationRate(uint256,uint256,uint256)": {
        "params": {
          "borrows": "The amount of borrows in the market",
          "cash": "The amount of cash in the market",
          "reserves": "The amount of reserves in the market (currently unused)"
        },
        "return": "The utilization rate as a mantissa between [0, 1e18]"
      }
    },
    "title": "Compound's WhitePaperInterestRateModel Contract"
  },
  "userdoc": {
    "methods": {
      "constructor": "Construct an interest rate model",
      "getBorrowRate(uint256,uint256,uint256)": {
        "notice": "Calculates the current borrow rate per block, with the error code expected by the market"
      },
      "getSupplyRate(uint256,uint256,uint256,uint256)": {
        "notice": "Calculates the current supply rate per block"
      },
      "utilizationRate(uint256,uint256,uint256)": {
        "notice": "Calculates the utilization rate of the market: `borrows / (cash + borrows - reserves)`"
      }
    },
    "notice": "The parameterized model described in section 2.4 of the original Compound Protocol whitepaper"
  }
}